:10000000004000203D1D00007D1D00007F1D000000
:1000100000000000000000000000000000000000E0
:10002000000000000000000000000000811D000032
:100030000000000000000000831D0000851D00007E
:10004000A5140000DD3A0000871D0000871D000098
:10005000D91900000000000095130000871D000062
:10006000871D0000871D0000694A000081160000FE
:10007000871D0000871D0000871D0000871D0000F0
:10008000871D0000A5170000871D0000871D0000C8
:10009000353E0000871D0000871D0000871D000001
:1000A000871D0000871D0000000000000000000008
:1000B0000000000000000000000000000000000040
:1000C00008B5054B054803331B1A062B03D9044B0F
:1000D000002B00D0984708BD900000209000002021
:1000E000000000000648074908B5091A8910CB0F1F
:1000F0005918491003D0044B002B00D0984708BD75
:1001000090000020900000200000000010B5074C77
:100110002378002B09D1FFF7D3FF054B002B02D02A
:10012000044800E000BF0123237010BD90000020B0
:1001300000000000904E000008B5094B002B03D0D2
:100140000848094900E000BF08480368002B02D1B5
:10015000FFF7C8FF08BD064B002BF9D09847F7E71B
:1001600000000000904E0000940000208C00002051
:1001700000000000144B002B00D1124B9D46402282
:1001800092029A1A924600218B460F461148124A53
:10019000121A00F07DF80D4B002B00D098470C4B45
:1001A000002B00D098470020002104000D000B48D0
:1001B00000F016F800F046F82000290000F08EFF4D
:1001C00000F016F8000008000040002000000000C9
:1001D0000000000090000020C80500201D02000063
:1001E000011C002008B5021C031C00F059F808BDD2
:1001F000084B10B5041C002B02D0002100F0ACF815
:10020000054B1868836A002B00D09847201C00F02B
:1002100017F9C046590300001C4E000038B5074BC3
:10022000074C1D1CE41AA410002C04D0013CA300B0
:10023000EB589847F8E704F0E9FD38BD8800002046
:100240008C0000200E4B70B500251E1C0D4CE41ACE
:10025000A410A54204D0AB00F35898470135F8E745
:1002600004F0CEFD084B00251E1C084CE41AA41017
:10027000A54204D0AB00F35898470135F8E770BDAC
:1002800084000020840000208400002088000020DA
:10029000031C8218934202D019700133FAE77047A9
:1002A000F7B52A4D061C2C680091171C0193002CF1
:1002B00001D1274C2C6063681F2B15DD254B002BCB
:1002C00002D10120404240E08C2000E000BF041E2B
:1002D000F7D02A6800230260021C8832436028603D
:1002E00013609E420AD128E0002E26D0231C8833BA
:1002F0001868002810D1174B002BE2D08420400052
:1003000000E000BF0028DCD0031C0022FC335A6050
:100310009A60231C88331860012261688A408B0030
:10032000C31880C3FC304168114341600199D9670B
:10033000022E02D183681A438260002063685A1C2F
:1003400062600233009A9B001A51FEBD3801002002
:10035000AC00002000000000F0B587B005900391CC
:10036000344D2C68002C63D0231C88331E686368CE
:100370005A1E0192304A9B189B00F7180433E31869
:100380000293019B002B3DDB039B002B07D0002E2B
:1003900031D03B1C80331B68039A93422BD1626897
:1003A000029B0199013A5B68914201D1616002E0D0
:1003B000002202994A60002B1DD062680492002E30
:1003C00007D0012201998A40311CFC314868104253
:1003D00001D1984708E08968114203D1059839682E
:1003E000984701E038689847049B62689342B7D108
:1003F0002B68A342B4D1019B043F013B0193029BB4
:10040000043BBDE70D4B002B12D062682368002A25
:100410000BD1002B09D02B60002E02D0301C00E045
:1004200000BF201C00E000BF9BE7251C1C1C99E7B7
:1004300007B0F0BD38010020FFFFFF3F00000000C3
:10044000FEE7C046304B1B78012B00D070472F4B86
:100450001B681B07FAD1F0222D4B1B68134027D1D4
:100460002C4B1B68134229D0284B1B681B07EDD16E
:10047000F022274B1B681340402B32D0244B1A68C4
:10048000F0231340A02B01D0D02BDFD1214B1A68D1
:10049000F0231A42DAD1204A1368012B04D01F4BF3
:1004A00013601368012BFCD1C0221D4B1A60CDE7ED
:1004B000102B0FD1174B1B681342D9D1194A1A4B75
:1004C0001A608022194B12021A600F4B1B78012B05
:1004D000CAD0BBE7302BCBD10E4B1B681342C7D120
:1004E000ECE70C4B1B681342C8D1C12380220121C9
:1004F000DB00D205D150044B1B78012BA6D1034B56
:100500001B681B07BAD0A1E7E00F00F0E40F00F072
:10051000E80F00F0EC0F00F000EC064075930000CF
:1005200014EC0640DFFF07C004050040186C0040D3
:100530000138C046C046C046C046C046C046C04658
:10054000C046C046C046C046C046F1D17047C0460E
:10055000F0B557464E464546E0B4724B01261B683F
:10056000714CDA06D20F9201914618079A055D097F
:10057000C00FD20F52013540C001904628434D466E
:100580005A05D20F12019446284345462843654632
:100590009F035903FF0FFF005A072843C90F890023
:1005A0003843D20F5200084310431A05D20F92016C
:1005B00091462070DA03D8051D0BC00FD20F5201EF
:1005C0003540C001904628434D461A03D20F120110
:1005D000944628434546284365469F075906FF0F22
:1005E000FF001A062843C90F89003843D20F520072
:1005F000084310431A04D20F6070D001DA02D20F00
:10060000920192469A00D20F520191465A00D20F9F
:1006100012019446321C1A40D2009046DA00D20FE2
:1006200097009A01D20F5500021C190E31400A435F
:1006300051460A4349460A4361460A4341465B0222
:10064000DB0FDB010A433A43E370384B2A43A270C5
:100650001A78002A5DD000221A700023344E00253B
:10066000F35600219BB29846324F33487D5741568E
:10067000ADB289B2314A94461278634652B2AD188F
:100680000022ADB21A702A1C2DB27F3501DA2C4B34
:100690001A8815B27F2D00DD7F22002592B23A70B4
:1006A000284F7D572B1C002543449BB23D701D1CD9
:1006B0001BB27F3301DA224B1D882B1C2DB27F2DFC
:1006C00000DD7F239DB2002335701F4EF356C918FD
:1006D000002389B233700B1C09B27F3101DA184B49
:1006E0001B8819B27F2900DD7F239BB20370012094
:1006F00022716571A37101F007FC002804D001206C
:10070000211C072201F063FB1CBC90469946A246BF
:10071000F0BD0023002198460025064F044E0648F0
:10072000A8E7C046680100204401002067010020BE
:100730006C010020400100209C0100207401002079
:10074000204E00003C010020410100207A4AF0B513
:1007500056464D465F4644469446F0B4A023802654
:1007600003226146754DDB0583B0B60101905A50F6
:1007700008205E510138C046C046C046C046C0464B
:10078000C046C046C046C046C046C046C046F1D17D
:10079000E7248021E400C9011A5108205951013889
:1007A000C046C046C046C046C046C046C046C04619
:1007B000C046C046C046C046F1D160461A50A1208E
:1007C000C0001E501A51195008200138C046C046BA
:1007D000C046C046C046C046C046C046C046C046E9
:1007E000C046C046F1D103208246033081467A30AC
:1007F000023A032680461FE0604657461F5080207D
:1008000080018346A1205F46C0001F50A120C00088
:100810001E51195001200138C046C046C046C0468E
:10082000C046C046C046C046C046C046C046C04698
:10083000F1D10132082A1CD01E5102205951013831
:10084000C046C046C046C046C046C046C046C04678
:10085000C046C046C046C046F1D1484647469040D3
:100860000742C9D1604657461F5080208001585129
:10087000CCE705200138C046C046C046C046C04649
:10088000C046C046C046C046C046C046C046F1D17C
:100890008020032181462848A02380468020E72528
:1008A0008A46802180010022DB05ED000324234ECF
:1008B000C90184461CE0404657461F50A1206746A8
:1008C000C0001F50A120C0005C5119500120013808
:1008D000C046C046C046C046C046C046C046C046E8
:1008E000C046C046C046C046F1D10132082A1BD0DE
:1008F0005C51022099510138C046C046C046C046EE
:10090000C046C046C046C046C046C046C046C046B7
:10091000F1D101984F4690400742CCD1404657460E
:100920001F5060469851CDE703B03CBC90469946B5
:10093000A246AB46F0BDC046340700000C050000DF
:10094000F0B55F464D4644465646A023F0B4802499
:100950000322504D5049DB05A40183465A5183B010
:100960005C5008200138C046C046C046C046C0465C
:10097000C046C046C046C046C046C046C046F1D18B
:10098000E720C0001A508020C001585008200138CC
:10099000C046C046C046C046C046C046C046C04627
:1009A000C046C046C046C046F1D158466E46F071BA
:1009B000F0795A5140B2002800DAE9E05C50A022F8
:1009C000E7230321D205DB00D1508027A121FF01BD
:1009D000C900575008200138C046C046C046C0462E
:1009E000C046C046C046C046C046C046C046C046D7
:1009F000F1D19C4603239846274B0121994636E0C6
:100A00000320244BD050A1238020DB008001D05054
:100A100001200138C046C046C046C046C046C04658
:100A2000C046C046C046C046C046C046F1D10320BD
:100A3000444682466046A1261450A023E725802420
:100A4000F600DB05ED00E401975101200138C046B6
:100A5000C046C046C046C046C046C046C046C04666
:100A6000C046C046C046F1D10131082916D06346C0
:100A70004046D0504B46D750802358460B41184231
:100A8000BED10320034BD05080204B468001D05074
:100A9000BEE7C046340700000C0500003E4A0431A2
:100AA000995009200138C046C046C046C046C046DD
:100AB000C046C046C046C046C046C046C046F1D14A
:100AC00052465A51354A062090469C500138C0463D
:100AD000C046C046C046C046C046C046C046C046E6
:100AE000C046C046C046F1D1A221524601205A510B
:100AF000C9009C515A58520B0240D201D2B209305F
:100B00000138C046C046C046C046C046C046C04682
:100B1000C046C046C046C046C046F1D10627AC46D6
:100B20008946032561465D50414602205C500138EC
:100B3000C046C046C046C046C046C046C046C04685
:100B4000C046C046C046C046F1D161465D504946E8
:100B50009C51595801208904C90FB9400A43D2B2A7
:100B60000138C046C046C046C046C046C046C04622
:100B7000C046C046C046C046C046F1D1013FD1D2B2
:100B8000101C03B03CBC90469946A246AB46F0BD53
:100B9000A122D2009C5012E7340700000C0500008F
:100BA000F0B54746002080B4FFF7CAFE302849D090
:100BB00040258023324C0326E5500133FF33E550B6
:100BC000304B181C984600F03DFD2F4F381C00F0AC
:100BD00039FDA023E72180222C48DB05C900D20182
:100BE0005E501A5002200138C046C046C046C0467A
:100BF000C046C046C046C046C046C046C046C046C5
:100C0000F1D15E50A121FA20C9005A50C00001382C
:100C1000C046C046C046C046C046C046C046C046A4
:100C2000C046C046C046C046F1D1194B25601B786E
:100C3000002B20D0381C00F0F9FC0020FFF780FECC
:100C4000302815D01E200138C046C046C046C046D8
:100C5000C046C046C046C046C046C046C046C04664
:100C6000F1D10220FFF76CFE0A4BC009C0B2187028
:100C700004BC9046F0BD404600F0D8FCDDE7C0461D
:100C800000E100E02C4E0000244E00000C050000A6
:100C9000750100206601002038B52D4B1B78002B14
:100CA00026D02C4B1B68002B35D02B4C23680833E7
:100CB0002360642B33D8294B1B78002B1ED1284C82
:100CC000284A238801339BB22380934203D9214BC6
:100CD0001D68002D28D0204C236808332360642B26
:100CE00005D91C4B1B68002B2FD10023236038BD76
:100CF000FFF756FF194B1B78002BE0D00022184B52
:100D000019481A8000F09EFC0122184B18481A70EE
:100D100000F08CFCEBE7144800F094FCCBE7FFF705
:100D200017FC00232360C6E70F4800F08BFC082265
:100D3000104B258019780A431A701878C0B2FFF753
:100D400005FD01220C4B1A70D1E7FFF701FCCCE73F
:100D50003E01002068010020700100206601002093
:100D6000640100207C9200002C4E000075010020E0
:100D7000244E00006100002060000020F0B55F46B6
:100D800056464D464446F0B4BA4B85B01B780393A3
:100D9000002B04D1B84C2378002B00D0F0E0B74BE7
:100DA0000293B74DB74C6A682B6805211343AA68B4
:100DB0001343EA6813432A691343DB43A0220193D8
:100DC000A223D205DB00D6589046F643AE4AAF4B7D
:100DD000914634401C601078AD4B01301F681C6098
:100DE00003F0F8FF4A46AB4B11701A68019B67404D
:100DF00054401C40A84B54401C40A0231B041E40E0
:100E0000344389004F51251C131C92469543A34A35
:100E1000A34399460094141CA14B46469B46A14B04
:100E2000193401209846CC4607E04146C133FF33D0
:100E30009B0099510132A2420FD0011C13789940B6
:100E40000D42F2D167460F42F4D05946C133FF3309
:100E50009B0001329951A242EFD153460124DA0D91
:100E6000009B2240D90D580D214020408A426CD071
:100E700001238D4C4B402278DBB21D1C002A34D15B
:100E80002570002950D1A0228549884BD205D15028
:100E9000002850D1824BA021854AC9058B50029B66
:100EA0001B78022B49D9834D2B78002B00D1B3E05E
:100EB0002C782B78E4B2002B00D07FE0754B009AA1
:100EC0001B68934221D07C4D009B724A1360FFF750
:100ED0003FFB00232B60009B6E4A136005B03CBCB7
:100EE00090469946A246AB46F0BD022AC8D1002BD7
:100EF00000D19EE0002802D00123002913D16F4ABF
:100F00000125137801331370BAE7019B013300D137
:100F10009AE0694D2B68642BD6D8002CD4D10133CC
:100F20002B60D8E702232370A0225E495F4BD205D5
:100F3000D1500028AED05B4BADE7039A0024002AC5
:100F4000BCD1029A01331370B8E753465B0D2340BE
:100F50008342A4D0002822D1534C03252378002BB0
:100F600000D08DE755490B78013B0B7003232370AC
:100F7000002AD9D1A0214A4B4C4AC9058B508AE797
:100F800008214F4B1A788A431A701878C0B2FFF7BD
:100F9000DDFB039A394B227002931A7001E7424C31
:100FA0002378002B3BD002232370002ABCD1A0223F
:100FB0003E4B3B49D205D1503A4B6CE70022414BA6
:100FC0001E201A800138C046C046C046C046C046F2
:100FD000C046C046C046C046C046C046C046F1D125
:100FE0000320FFF7ADFC384B18701E200138C046B7
:100FF000C046C046C046C046C046C046C046C046C1
:10100000C046C046C046F1D10420FFF799FC2F4BE3
:10101000187000232B7051E7FFF7C2FD48E7002A44
:1010200000D07FE7254A1378013313700223237021
:10103000BDE7002802D0002900D074E71F4A002530
:101040001378013B13701BE7002C00D03BE72048CE
:1010500000F0F8FA1F4B20481C7000F0E7FA194B1B
:101060000C4A1C80009B1360FFF772FA124B1C6045
:1010700034E7C0463E010020600000203F01002010
:1010800050010020FF9FFF733D01002098010020C8
:101090004C01002068010020FFFF5FFF344E00007C
:1010A0000C0003000C000200620000205C0700003E
:1010B000540700006601002070010020410100205B
:1010C00061000020640100203C0100207401002028
:1010D000244E0000750100202C4E0000F0B54E4655
:1010E000454657460020E0B401F07AF9012001F0AE
:1010F00039F9002001F074F804218F4800F07AFFDC
:10110000022001F03FF8082001F0CCF89620800082
:1011100001F0B1F8022001F0F5F80A2001F0DAF848
:10112000642001F007F9854800F0B6FF844800F01C
:10113000CBFF00F029FE00F067F9002000F082F9F3
:1011400000218048FFF7F4F908227F4D2B78934364
:101150002B702878C0B2FFF7F9FA7C4B7948994692
:1011600000234A4600211370FFF7E2F9A023EB2188
:101170000C22DB05C9005A5075495A5004315A50A7
:1011800074495A5004315A5073495A50A222D2001D
:101190009958985888469C5802219E589F589B58A9
:1011A00042469C4629700123520200D599E06B4EBD
:1011B000337008222B78082493432B70287810274B
:1011C000C0B2FFF7C3FA8021890088468021C90098
:1011D0008C468021A022A223C903D205DB008A46C7
:1011E0000FE0FA2080000138C046C046C046C04625
:1011F000C046C046C046C046C046C046C046C046BF
:10120000F1D1D1580C42ECD0D1580F42E9D0404630
:10121000D1580142E5D06046D1580142E1D0D158C1
:101220000142DED05046D1580142DAD04548002173
:10123000FFF77EF94A4B00219846181C494A00F0F6
:10124000BFF9494C494A0021201C00F0B9F9404639
:1012500000F0ECF9201C00F0E9F94046012100F013
:10126000FDF9201C012100F0F9F9201C00F0EAF939
:1012700019239846A023DB059C463D4A3D4C9044EB
:10128000A021674613780132C133FF339B00C905A3
:101290003848DC514245F3D10022374BC850374B18
:1012A000C850374B1A605A609A60DA601A61337816
:1012B000002B1DD10322334B1A70C1218022324BE7
:1012C000890012065A50314A314B50580340C02011
:1012D0000004034353504023136040BF20BF20BF8E
:1012E000FBE76246520C1A400ED12A701B4E60E793
:1012F00008232A7813432B702878C0B2FFF726FA08
:1013000001234A461370D8E7BA0A134206D0720A7C
:1013100013420DD02209134203D103232B700F4E29
:1013200047E7C208134203D104230C4E2B7040E759
:1013300029700A4E3DE7C046640000200403020104
:1013400008070605881300006100002060000020E7
:101350000C07000024070000440700003E010020A5
:101360002C4E0000990C0000244E00007D0D000062
:10137000344E00000C0003005C070000540700001E
:10138000500100203F0100200060004000E100E02B
:10139000FFFF00FF08B5BE23084A5B00D1580029B3
:1013A0000AD000210648D15000F04CF90122054B2B
:1013B00005481A7000F03AF908BDC04600600040C8
:1013C0002C4E000075010020244E0000202300B5A3
:1013D000C9B285B00393002903D0034903AA00F0E2
:1013E00039FD05B000BDC046780100200122024B46
:1013F00082B01A7002B070476701002082B002B05C
:101400007047C0467047C04638B50D4C8520237ADA
:10141000002B00D038BD636023602361E360AA2203
:101420008023FF210125DB05D2009950383A0020A6
:101430009D50FC3900F084F825720020EAE7C04690
:10144000A001002038B5051C002000F067F8124C00
:10145000A37A002B0BD0002D02D06B680120984797
:10146000E36801330020E36000F060F838BD002D30
:1014700002D0236925612B60E368002BF1D1074A74
:1014800080211360C12202209200C90588500121E9
:10149000034A1160E5E7C046A001002004010040B6
:1014A0000800004010B51A4B1A68002A14D0002218
:1014B00080211A60C2220123164C9200C9058B506C
:1014C00063726368002B07D01A6800205B68626053
:1014D00098476368002BF7D10F4B1A68002A15D084
:1014E00000221A60C223802202219B00D205D15023
:1014F0000123084CA3722369002B07D01A6801202E
:101500005B68226198472369002BF7D110BDC04664
:1015100000010040A00100200401004072B6024A10
:101520001368013313607047B4010020034A136845
:10153000013B1360002B00D162B67047B40100205C
:10154000F0B5002820DBFF271B4B03229C463B1CE9
:101550008408C026C0B20240D2009340A400644474
:10156000B600A5599D438B013B409340191C29436C
:10157000A1511F2318401E3B8340C022181C0E4B54
:10158000520098501860F0BDFF260C4A0324944680
:10159000321C0F23C0B20440E400A2400340083BC9
:1015A0009B089B006344DD6995438A013240A24059
:1015B000111C2943D961DCE700E100E000ED00E007
:1015C00070B5051C0C1C002A0DD0437914499800F5
:1015D00042505A00002C1ED0124ED3189B5D08209A
:1015E000002B02D070BD0720FCE70420A17828560C
:1015F000FFF7A6FFA12322882968DB00CA506B7978
:1016000021795A00D318F2185170E17800209170B6
:1016100001229A55E6E7D418034964000C19DBE768
:10162000B8010020C0010020504E0000012202211C
:1016300003681A6043795A00D318014A99547047D5
:10164000C0010020012203685A6043795900CB1879
:1016500001495A547047C046C0010020802300222F
:1016600010B504685B00E250D1220468FF3B920091
:10167000A350002902D00168403A8B5010BDC046EB
:10168000C12208B5414B9200995880225202114262
:1016900003D03F49086800284DD1C1223B4B92003E
:1016A000995880229202114203D03A4908680028D2
:1016B0004DD1C122354B920099588022D20211425D
:1016C00003D03549086800284DD1C1222F4B920024
:1016D000995880221203114203D03049086800282B
:1016E0001DD1C122294B92009A58D20704D58022DD
:1016F00052009958002942D1C122244B92009A5895
:10170000920704D5822252009958002900D108BDC1
:1017100000219950224B05201B689847F7E7D220FB
:1017200080001A5040381A5000230B601C4B0320D5
:101730001B689847D5E7D22080001A5040381A50CD
:1017400000230B60164B00201B689847A5E7D220AA
:1017500080001A5040381A5000230B60104B0120B3
:101760001B689847A5E7D22080001A5040381A50CD
:1017700000230B600A4B02201B689847A5E7002155
:101780009950074B04201B689847B5E700B000400C
:1017900040B1004044B1004048B100404CB100406D
:1017A000B8010020C12208B5414B9200995880220F
:1017B0005202114203D03F49086800284DD1C1228E
:1017C0003B4B9200995880229202114203D03A4931
:1017D000086800284DD1C122354B920099588022CB
:1017E000D202114203D03549086800284DD1C122E8
:1017F0002F4B9200995880221203114203D0304996
:10180000086800281DD1C122294B92009A58D2079E
:1018100004D5802252009958002942D1C122244B7C
:1018200092009A58920704D58222520099580029B2
:1018300000D108BD00219950224B05205B689847D4
:10184000F7E7D22080001A5040381A5000230B606E
:101850001C4B03205B689847D5E7D22080001A50C4
:1018600040381A5000230B60164B00205B689847E5
:10187000A5E7D22080001A5040381A5000230B6090
:10188000104B01205B689847A5E7D22080001A50D2
:1018900040381A5000230B600A4B02205B689847BF
:1018A000A5E700219950074B04205B689847B5E7EE
:1018B0000010014040110140441101404811014015
:1018C0004C110140B8010020F0B54D4644465F463A
:1018D0005646F0B409AC25780AAC2478A4460C78B6
:1018E000002C17D11678B046922676008759B34659
:1018F000002F20D0331C243BFF3B845143610B70ED
:10190000A8450FD00124201C3CBC90469946A24615
:10191000AB46F0BD9222002352008350083A835018
:10192000143A835082235B00C258002AEAD0002276
:101930000024C250E7E78E267600B1468659B246AB
:10194000002E0BD04E4687515E468659002E23D07E
:101950005B46C750012343610B70D1E784246400C8
:101960000759002FCCD0564606515C460459002C2E
:1019700022D111788D42C3D9A324E40004595C54C8
:1019800013780133DBB213706A1E93421DD09D425F
:10199000B6D001230362B3E711788D4205D86346C0
:1019A000002B0FD00123C361ADE7595C094BC15037
:1019B000137801331370A3E701235A46865043611D
:1019C0000B709DE7012343619AE7802302229B006D
:1019D000C250DEE71C050000F0B544464D465F46A8
:1019E0005646F0B4B64B2321DA69585C9046202263
:1019F0009C5C01329A5C89B09146002816D126225F
:101A0000922594469F5CAF4A6D005659AB46002E16
:101A100037D05051012050615854BC420FD009B00A
:101A20003CBC90469946A246AB46F0BD92200021B0
:101A3000A44A400011500838115014381150822225
:101A4000A049520088580028E9D00020885023205F
:101A5000195C002926D11E7BB21E012A58D9191CF7
:101A600005AA0C3170C970C2002204A80270242299
:101A7000002199549A695207D1D459681B68984734
:101A8000CDE78E2040001558AA46002D1ED01650D6
:101A90005846105800286FD0584616500120506103
:101AA0005854BAE7191C05AA0C3170C970C286498E
:101AB000844C04A8625862500221114203D152079B
:101AC000D5D50170D3E701220270D0E78420400011
:101AD0001658002EA1D055461550584610580028CB
:101AE0005AD1BC4299D9A3214046C9005158C15589
:101AF00061466046595C0131C9B21954601E814289
:101B000050D08C4200D188E701216E4A116284E7EF
:101B1000DA691C69A242A2D15A6901279046DA61AA
:101B20002022DC7B9C549A6952093A40914621223A
:101B30004D469D54032E3AD08226624A760091513A
:101B400020369151083E9151143E9151E23E9955F3
:101B50001954012C50D08021890057500121594A35
:101B600011621160196800294BD058499960996831
:101B7000C1239B00D15052E7BC4205D849460029F9
:101B80000DD00121D16162E74146C85D50495050F6
:101B900061467A1C5A5440E750465D4639E70121B8
:101BA00051613AE78021022089005050ACE7454E50
:101BB000E332B1502032B150083AB150143AB1502A
:101BC000F832B150DB3AFF3A9954195494463762CF
:101BD000B760002C26D04246107862463C497050CF
:101BE0009F541A68002A24D0384A9A609968C12301
:101BF000344A9B00D15012E78021022089005050C6
:101C0000ACE71F1C26331E1C4546233700230094D7
:101C100001932C48391C321C2B1CFFF755FE002861
:101C2000F4D1FCE64A46002A01D0F761D9E7776192
:101C3000D7E792200132232700269346214940000E
:101C40000394DA5D9446002A2BD10C582632924632
:101C50009A5C002C2CD18E256D004D59AC46002D80
:101C600038D08E256D004C510D58002D21D1039C8C
:101C7000944251D94446A45CA4466546144C0D5187
:101C80005546541C5C55039C9442DAD18222520082
:101C900094468A58002AD4D000226146094B5A50F3
:101CA000BDE68E2252000E508E50143A8E50EDE753
:101CB00064460C505C464C615C46DC55E3E7C0462C
:101CC000C801002000400040C4040000860200005B
:101CD0001C050000842464000D59002DD3D06546F6
:101CE0000D510C58002CE3D1039C9442CBD9A32472
:101CF0004546E4000C59AC54544655461C5D01342D
:101D0000E4B25C55039D013DAC420FD0039DA5425A
:101D1000B9D05C460C62B6E74C46002C03D00122D9
:101D2000054BDA617BE65C464C61ACE7802402251A
:101D3000A4000D51EDE7C0460040004003210A48D1
:101D400002680A430260094802680A4302600849BF
:101D5000084A094B9B1A03DD043BC858D050FBDCF2
:101D6000FEF770FBFEF706FA24050040540500401C
:101D70009C4E00000000002090000020FEE7FEE7DF
:101D8000FEE7FEE7FEE7FEE708B5064B1868002809
:101D900003D1054902220A7002E001F049F901204D
:101DA00008BDC046F001002030020020014B186839
:101DB000407E7047F001002008B500F011FE0028B9
:101DC00002D100F0F8FD01E0FFF71CFB08BDF8B5FB
:101DD000051C0F1C161C072804D904221B4E0020CA
:101DE000327031E003220029F8D00622202EF5D8E7
:101DF00000F04CFE09220228F0D8281C00F04AFE10
:101E00000A220228EAD800F049FE08220128E5D972
:101E100000F0F4FD4378041C067001200343637056
:101E2000391C321CA01C02F0E1FFE8B2211C00F0BA
:101E3000F9FD051C0120002D06D1054802F0CAFA63
:101E4000024F0F213970281CF8BDC0463002002017
:101E5000DD000500F8B5061C0D1C171C00F01AFE6D
:101E6000002803D1154F0B253D7025E00322002DDE
:101E700007D0301C00F0FCFD3A6803789A4204D287
:101E800006220E4E0020327016E0301C00F0E6FDF7
:101E9000041E0AD00278811C3A60281C02F0A6FFBA
:101EA000201C00F0B5FD012006E0054802F092FA82
:101EB00002490F200870201CF8BDC04630020020E7
:101EC0000501050008B5072804D9044B04221A703F
:101ED000002001E000F0DAFD08BDC046300200201D
:101EE00008B5072805D9044B042201201A70404286
:101EF00001E000F0CFFD08BD3002002008B500F081
:101F0000CDFD0623181A08BD10B5041E072C03D9F1
:101F10000B4B04241C7003E0FFF7D4FF022801DD03
:101F200000200CE0201CFFF7DBFF0228F8DCFFF7A5
:101F3000E5FF0623181A012181429241504210BD4B
:101F40003002002008B50A4B19684A7E002A04D0E6
:101F5000084A0C211170002009E0072803D9054B1D
:101F600004201870F7E7C0B200F09CFD012008BD06
:101F7000F00100203002002008B5072804D9054BE5
:101F800004221A70002003E0C0B200F0A5FD012079
:101F900008BDC0463002002010B501280AD0002834
:101FA00003D0022808D1002000E0012001F028F829
:101FB000012005E00220F9E7024B05221A700020FB
:101FC00010BDC0463002002010B500F011FD012800
:101FD0000AD00224002808D0A04201D1012404E044
:101FE000034802F0F7F900E00024201C10BDC046B1
:101FF0007001050038B5134A031C10680C1C407EA4
:10200000002804D0104D02202870002018E001396B
:102010000F2903D90C4907220A7011E0002B03D1C4
:10202000094C03232370F0E7084D191C10C5221C2E
:10203000281C02F0DBFE281C211C00F0BDFD012045
:1020400038BDC046F00100203002002068000020AA
:102050000C4B10B51A680C68944201D3102C04D9AB
:10206000094C0720207000200AE0002803D106490F
:1020700003220A7004E00A60191D02F0B7FE012075
:1020800010BDC0466800002030020020014B1868D7
:102090007047C0466800002008B5074B19684A7EA3
:1020A000002A04D0054B02201870002002E000F046
:1020B0001DFD012008BDC046F001002030020020B7
:1020C00008B500F023FD08BD08B5074B19684A7E26
:1020D000002A04D0054B02201870002002E000F016
:1020E0001BFD012008BDC046F00100203002002089
:1020F00008B500F01FFD08BD08B50A4B1A68537EED
:10210000002B04D0084B02221A70002008E0072898
:1021100003D9054804210170F7E700F011FD012003
:1021200008BDC046F00100203002002010B50C1C94
:10213000072804D90422064B00201A7006E0032267
:102140000029F8D000F028FD2070012010BDC04605
:102150003002002008B5074B19684A7E002A04D0D7
:10216000054B02201870002002E000F065FD012000
:1021700008BDC046F00100203002002008B500F084
:1021800061FD08BD08B50E4A031C1068407E00289A
:1021900004D00C480222027000200FE0012B0AD06C
:1021A000002B07D0022B01D1012004E0054B0E21AA
:1021B000197003E0022000F0DDFD012008BDC046DB
:1021C000F00100203002002008B501F023F80021C2
:1021D000012801D8014B195C081C08BD5C4E0000A9
:1021E00008B5134B19684A7E002A04D0114A02210F
:1021F000117000201BE006280FD802F06BFC1214AF
:102200000406080A0C00FC200EE0F8200CE0F42084
:102210000AE0F02008E0EC2006E0064B0E201870E3
:10222000E7E7042000E0002000F046FD012008BDA3
:10223000F00100203002002008B500F04BFDF0282E
:1022400013D004D8042814D0EC2806D10FE0F828C5
:1022500007D0FC2803D0F42805D001200AE0022092
:1022600008E0032006E0042004E0052002E0062048
:1022700000E0002008BD08B5064B19684A7E002A18
:1022800004D0054B02201870002002E000F0E0FCB2
:10229000012008BDF00100203002002008B500F048
:1022A000DDFC08BD08B5074B19684A7E002A04D03A
:1022B000054B02201870002002E000F097FC01207E
:1022C00008BDC046F00100203002002008B500F033
:1022D00093FC08BD08B5074B19684A7E002A04D054
:1022E000054B02201870002002E000F0CBFC01201A
:1022F00008BDC046F00100203002002008B500F003
:10230000C9FC08BD08B5074B19684A7E002A04D0ED
:10231000054B02201870002002E000F0A5FC01200F
:1023200008BDC046F00100203002002008B500F0D2
:10233000A3FC08BD08B5074B19684A7E002A04D0E3
:10234000054B02201870002002E000F0A9FC0120DB
:1023500008BDC046F00100203002002008B500F0A2
:10236000A5FC08BD08B50B4B19684A7E002A04D0AD
:10237000094A0221117000200AE0002805D0012836
:1023800003D0054B0E201870F5E700F05BFF01202D
:1023900008BDC046F00100203002002008B500F062
:1023A00057FF01384342584108BD08B50A4B196828
:1023B0004A7E002A04D0094A0221117000200AE056
:1023C000002805D0012803D0044B0E201870F5E733
:1023D00000F050FF012008BDF00100203002002075
:1023E000F8B51E4D00241E4E071C281C211C0C2273
:1023F000083034706C60FDF74BFF1A4800F048FE5F
:102400002860A04203D101203070002024E0164B48
:10241000181D1968FFF7EEFD051C381CFFF7BCFD01
:102420000540042000F0EEFB201CFFF79BFFEFB2FD
:1024300007400120FFF7D4FE07400220FFF7A2FE6D
:102440000740201CFFF7B1FF041C01203C4000F0B6
:10245000E7FE002CD7D00120F8BDC046F0010020D7
:1024600030020020DF2400006800002008B500F0E2
:1024700007FF01384342584108BD024B0022DA6091
:102480007047C046F0010020014BD8687047C04635
:10249000F0010020044B002200B51A72904202D0D5
:1024A00018610120187200BDF0010020014B18785E
:1024B0007047C04630020020014B00221A7070475E
:1024C00030020020014B58687047C046F0010020E0
:1024D000014B00225A607047F00100207047F0B5B0
:1024E00089B0040C031C060A84460190101C039258
:1024F00097B2020C0D1C002002910092E1B26246DC
:1025000006AC069060600590D0B21B0EF6B20528AE
:1025100054D802F0DFFA03142943403D6A4649B219
:10252000484223701388E080281C6780A38000F055
:102530006FFA301C06996268FEF748FF41E02249B5
:102540000B68587E002802D1204801F043FF281C68
:102550006D4600F05DFA67802F88301CA7800699D1
:102560006268FEF743FF2CE048B205AC424223709C
:102570006280002B07D0002D02D1154801F02AFF00
:10258000281C00F045FA301C0599FEF737FF18E0CB
:10259000FEF738FF15E0FFF7A1FF12E00A4DE968EA
:1025A0002B7A0131E960002B0BD02F69002F02D16B
:1025B000FFF702FC05E0013F2F6102E0054801F052
:1025C00009FF09B0F0BDC046F0010020B5030500C9
:1025D000C3030500E3030500024B03490F221A70F1
:1025E0004860704730020020F001002000B5064A24
:1025F00001231178022903D05068421E904100E067
:10260000181C1840C0B200BD3402002008B5FFF706
:10261000EDFF044B044A002801D0D06800E0906828
:10262000186008BD080200206C02002008B5044BA9
:102630005A68002A01D0013A5A60FFF7E7FF08BD47
:102640003402002010B500231A1C041C1C41012177
:1026500021400724E41AA1400A430133D2B2082BD7
:10266000F3D1101C10BD70B50024061C251C301CB5
:10267000E040C0B2FFF7E6FF1823191B884008347A
:102680000543202CF3D1281C70BD38B50D1C01F07A
:1026900071FE084C63699D4202D8074801F09AFE1A
:1026A00060690122291A054802F058F90021616188
:1026B00038BDC046340200204D060900B543000075
:1026C00007B5A12303210F4A8B40D15001F094FD9F
:1026D000002815D002280AD9032811D1002300931D
:1026E0000193181C191C1A1C01F09EFC03E0002029
:1026F000011C01F035FD042802D0034801F06AFEF8
:1027000007BDC04600F00140E801090008B501F02E
:1027100027FFA1230E4AD900505001F06DFD01287A
:1027200007D001F069FD022802D00A4801F052FEEC
:10273000002001F0B9FA02F093F9074BA221CA0078
:1027400098500648064AC1684868985008BDC04677
:10275000001000401E06090000F0014008020020A1
:102760001405000008B502F0EDF801280FD002F0C2
:10277000CDF8074B187F002803D180210122CB051B
:102780005A60002001F0F6FD024A0020506008BDAA
:102790006C0200203402002010B501F06AFD002810
:1027A0001AD00E4B00229A81DA8101F0C5FB0C4C45
:1027B0000C49605001F0C0FBA62201238340D100E8
:1027C000635001F0BFFB084C206001F0C1FB074BD8
:1027D0006060E360FFF79AFF10BDC046340200203E
:1027E000001000402C050000500200209528000039
:1027F00008B502F0A7F8012822D101F0D5FD002884
:1028000002D0104801F0E6FD1E210F48002202F020
:10281000A5F80E4B197F002902D002F06BF80FE0EB
:102820000B480C4B0122026059608021C8050260F0
:10283000C046C046C046C0465A68002AFCD0ECE7F5
:1028400008BDC0462C060900B54300006C020020FC
:1028500014050040FC0000401FB5FFF783FF01F0A6
:10286000D9F80A4A002301A80521017043601C1C05
:102870000381438143708370C3709370537601F07A
:102880009DFA03480470FFF71BFF1FBD34020020B0
:1028900068020020F0B53E4B8022D000195887B066
:1028A000012904D03B4C00261D59B54206D13A4EB1
:1028B0002022776800263B789A427641374C0125E2
:1028C00061692E40281C002901D102F041F82842FC
:1028D00001D10120606101F08FFC012802D0304855
:1028E00001F078FD2F4DEF683B7D002B02D02E4884
:1028F00001F070FD01F08EF8002E47D00120011C80
:1029000001F02EFC042836D802F0E4F80332183225
:10291000320001F017FBE289071CA689019201F041
:102920000BFBE9686D46897D0497AF8803AB0022F5
:102930001A701E815F815870997014E001F002FBDB
:10294000071CE089A689019001F0F6FAEB686D4654
:102950009A7D0497AF8803AB00219A7019701E818D
:102960005F8158700122DA70181C01F027FA02E02A
:102970000E4801F02FFD01F019FE0D4E2061706927
:102980006060FFF743FE002001F016FE07B0F0BDC7
:1029900000100040340500005002002034020020E6
:1029A000A806090008020020A9060900C8060900B7
:1029B0006C020020704708B5012282F31088074B93
:1029C000597E002905D09878002802D19A70FFF727
:1029D0000FFF002282F3108808BDC0463402002099
:1029E000024B0120597E48407047C0463402002007
:1029F000014B18787047C0463402002008B5012307
:102A000083F3108801F094FC002181F3108808BD45
:102A100008B5012383F3108801F08EFC002080F3B9
:102A2000108808BD08B5012383F3108801F0EAFB84
:102A300000280DD008488278002A04D1417E002960
:102A400001D0FFF7D5FE002383F31088012001E0B9
:102A500080F3108808BDC0463402002008B5012369
:102A600083F3108801F0F6FB002181F3108808BD84
:102A700008B501F0EAFB08BD08B5012383F310880F
:102A800001F0D3FB002181F3108808BD08B501F0E7
:102A9000D8FB08BD08B501F0E7FB08BD08B501F09B
:102AA0004FFC08BD10B50123041C83F310880848AF
:102AB0000278002A05D0417E002902D0054801F0A5
:102AC00089FC201C01F0B5FB002484F3108810BDA4
:102AD00034020020FB02090008B5012383F31088AB
:102AE00001F0BDFB002080F3108808BD08B5044B41
:102AF0001862FFF7B8FD0349034A505008BDC046AD
:102B00006C0200201C05000000100040014B186AF8
:102B10007047C0466C02002008B5044B5862FFF7AE
:102B2000A2FDA421024ACB00D05008BD6C020020B7
:102B300000100040014B586A7047C0466C020020EC
:102B4000F8B5031C081C072B1AD80F4A03261E4091
:102B5000D118F600FF24B4402831E74308700B4C2D
:102B6000032B01D80A4D01E0A525ED0063591F4054
:102B70006751FFF767FD6759B0400743675102E0AF
:102B8000044801F027FCF8BD6C0200200010004052
:102B9000240500003903090010B5041E072C02D9D2
:102BA000034801F017FC034B18192830007810BDBA
:102BB000410309006C02002038B5051C0C1E02D12F
:102BC000074801F007FC002D02D1064801F002FC85
:102BD000054B00209D605C6001F0D6FC38BDC0460E
:102BE000480309004903090008020020014B58610D
:102BF0007047C0466C020020014B58697047C046C0
:102C00006C020020064B074AA32110B55877CB0071
:102C1000D4580104044820400843D05010BDC04699
:102C20006C02002000100040FFFFF8FF014B587FAE
:102C30007047C0466C020020014B18617047C046C7
:102C40006C020020014B18697047C0466C020020DE
:102C5000014B58607047C0466C020020014B586819
:102C60007047C0466C02002008B5024BD860FFF7E1
:102C7000CDFC08BD6C020020014BD8687047C046EF
:102C80006C02002008B5024B9860FFF7BFFC08BD3E
:102C90006C020020014B98687047C0466C0200200F
:102CA000014B58837047C0466C020020014B588B83
:102CB0007047C0466C020020034B0449044A30337D
:102CC000187050507047C0466C0200200C05000080
:102CD00000100040014B3033187870476C02002020
:102CE000184B10B531331870174A184BFF249958F8
:102CF000A1439950032821D8995801F0EBFE1D02F9
:102D00000A140124214399501149FF2058501149B8
:102D100006E00220014399500F490D4A99500F498E
:102D2000A722D20008E00324214399500C48084907
:102D3000A7225850A2400021995002E0094801F012
:102D400049FB10BD6C02002034050000001000405B
:102D50003C05000007010000FFFF000021100100FA
:102D6000FFFFFF00C2030900014B313318787047A1
:102D70006C0200201F4B00B532331870012821D09F
:102D8000002810D0022834D1A2211B4ACB00D050F9
:102D90001A491B481B4A08601B4B1C481C491A60F7
:102DA00008601C4A20E0A223134AD9005050134B5C
:102DB0001348154A186013491748154B11601860DD
:102DC000164A11E0A2230C4AD90050500B4B0C4874
:102DD0000C490D4A186011601148124A0C4B1249F7
:102DE00018601160114A02E00E490A60104A114849
:102DF000026000BD6C02002000100040241700405B
:102E0000005000784E0000542817004008800C60E5
:102E10002C1700408864720003800C6022647200EA
:102E200002800C603017004011646600DEC08F82A3
:102E30003E420F8234170040F8B5A122334C344B88
:102E4000344E354DD000002703210122F750315078
:102E500067516251E05831490F220140E150E55875
:102E6000062095430543E550E1582D4DC0229002C0
:102E70000D400543E550A323DD006159294A802315
:102E80000A40625160595904014361516059FF225F
:102E9000904320231843605161592348C0220840C1
:102EA0006051224853000221C15001F0D5FD204954
:102EB000204A70507251204D032373511F4800F077
:102EC000E1FD1F4E1F4DF060687FFFF79BFE286AF3
:102ED000FFF70CFE686AFFF71FFEE819283001783B
:102EE000381C0137FFF72CFE082FF6D12F1C303786
:102EF0003978154AA1502C1C313420783235FFF72F
:102F0000EFFE2878FFF736FFF8BDC04600100040FE
:102F10001405000000F00140FC0F0000FFFEFFFF61
:102F2000FFFFF0FFFFFFFFFDFF00FFFF00E100E0FC
:102F30001C050000041100400405000050020020A0
:102F4000080200206C0200200C05000070B5274E1E
:102F500086B0337872789A4245D0002B01D1FFF7C2
:102F60006BFF7078002801D1FFF7AAFB2049214DA3
:102F700000246C5000F04EFD1F4D2C606C602C61E5
:102F8000AC60EC603378012B08D101F035F9A04238
:102F900017D0201C211C01F0E3F812E0022B10D105
:102FA00000F038FD154A2C61147001F025F9032852
:102FB00007D100940194201C211C221C231C01F029
:102FC00033F8FFF723FB70780024307003A8042641
:102FD000067044600481448144708470C47000F0C1
:102FE000EDFE012000E0002006B070BD340200209C
:102FF0001405000000F0014050020020680200208B
:1030000008B5012383F3108808490A78824208D062
:103010004870487E002802D1FFF798FF01E0FFF7D3
:10302000E7FB002383F3108808BDC046340200206C
:1030300038B5124B5A7E1C1C002A1DD1FFF7FCFE2E
:103040000F488168051C002902D10E4801F0C2F921
:103050006B68002B02D10C4801F0BCF901F098F923
:10306000002802D0094801F0B5F9002001F082F9EA
:1030700001226276FFF7BCFB38BDC0463402002057
:10308000080200205E0209005F02090066020900D2
:10309000F8B5071C012080F31088544D544B554E51
:1030A0000024002203211C605C609C60DC601C61C9
:1030B0001A7529702A766A76B46074606870AC708C
:1030C0006C60AC60AC81EC812C616C6101F0D6FB72
:1030D000381C00F059FE00F0F5FE201C01F042F90A
:1030E000301C01F07BF9444FC2208300F958434A59
:1030F000C0260A40FA50B0003B584149C522194049
:1031000039509600BB59FF20402183430B43BB51EC
:103110000120FFF775FF3B4E3B4B3C48311C3362AF
:10312000706228310123301C0B7029300223311CBE
:1031300003702A3103200870FF22311C32612B31C9
:1031400004220A707277321C2C3205201070321C57
:103150002D320621301C11702E3007220270301CD7
:103160002F300821321C0170303200201070321CC8
:103170000120311C32321070313196229A400B708E
:103180001E2171617260F360FFF740FA0F23B36094
:10319000FFF73CFA01207483307670760021201C02
:1031A0006924317701F0D0F834606E780124A642AA
:1031B00002D0174801F00EF900262C70AE706E6038
:1031C000AE60AE81EE812E616E612E766E76FFF777
:1031D00033FEC023802180225800CC0053033C5092
:1031E0003B5086F31088281CF8BDC04634020020EE
:1031F000500200200802002000E100E0FFFF00FF75
:10320000FF00FFFF6C02002004070A0D05080B0EEB
:103210003C020900014B3233187870476C020020E1
:10322000054B10B5041CD868002802D1034801F0F2
:10323000D1F803490C7510BD08020020F6030900FF
:1032400050020020014B18767047C0466C020020E7
:10325000014B187E7047C0466C020020014B587627
:103260007047C0466C020020014B587E7047C04634
:103270006C020020014B18777047C0466C0200209A
:10328000014B187F7047C0466C02002008B501F062
:103290005BF808BD08B50B4BD868417D002906D006
:1032A000012000F05BFB084B9A8901329A810749A3
:1032B000074B084A0020585051681368C91AFFF795
:1032C000E4F908BD080200203402002014050000C3
:1032D00000F001406C020020084B10B51A781C1C4D
:1032E000012A02D0064801F075F80649064A022074
:1032F000002320700B61CA6010BDC0466802002028
:103300009205090050020020A933000010B500F01A
:1033100081FB194819491A4C0023012202702361CC
:103320000869A623174AD900505000F065FF00280D
:103330000AD100F075FD01280DD900F00FFE606084
:10334000002808D1104804E000F056FF032802D0FE
:103350000E4801F03FF8022000F0A6FC002000F02B
:10336000FDFA00F049FF032802D0094801F032F8C5
:10337000FFF7B2FF10BDC046680200206C020020BB
:1033800050020020001000407B0509008005090064
:103390008805090008B5034B05221A70FFF7B6FF30
:1033A00008BDC04668020020F0B5484A8023D80016
:1033B000115887B0464C012904D0464D0023565978
:1033C0009E4205D1676800233978202088425B41FE
:1033D000414E032500210127357021603B408B427F
:1033E00055D08123D80015583C4B11583C48D1503A
:1033F00002A912583B1C00910194381C291C00F0B2
:1034000013FE032841D801F065FB1E02204E0298EE
:10341000002802D0334800F0DDFF281C00F024FF14
:10342000002802D1304800F0D5FF304903A8CF680A
:103430000223B97D0027037047603A1C078147814A
:10344000457081701DE02A482BE0029A002A02D1C3
:10345000284800F0BFFF281C00F006FF002802D11A
:10346000254800F0B7FF214F03A8FB68029F997D14
:1034700002220023027047600381438145708170FE
:103480000122C27000F09AFC0DE01C4809E0009394
:103490000193181C191C1A1C00F0C6FD042802D048
:1034A000174800F097FF2568002D06D100F0B2FA0A
:1034B00065752561FFF72AFF05E012480122627554
:1034C00020610424347007B0F0BDC04600100040F5
:1034D0005002002034050000680200202C05000086
:1034E0000C040000B8050900B90509000802002015
:1034F000BD050900C0050900C1050900C80509008E
:10350000CF0509009533000070B50C4DA124E400EF
:103510002E5901F025F886420AD001F021F82851F1
:10352000FFF7F4FE064900204968FFF7AEF870BDCA
:10353000044B18780028F3D0F4E7C0460010004090
:103540006C02002068020020F0B5864C01256369FA
:1035500089B0281C002B01D101F0FAF9012628407E
:1035600000D0D3E02178B14202D100F04BFA10E054
:10357000022908D000F042FFFFF758F8A678002E85
:1035800000D0A9E00EE0784A1378033BDDB2AE42EA
:1035900040410028EED0754E7548776801227908C1
:1035A0006161CBE0FFF7D2FC704D071E00D08EE0CA
:1035B00020780190061E012E06D0002863D0022834
:1035C00065D1FFF7A1FF65E000F024FA00F014FEDA
:1035D00000281DD100F024FC012851D9FFF706F87E
:1035E000071E0CD000F0FAFF002849D1287E0028E1
:1035F0000BD100F0DBFF2669B04241D105E0206924
:1036000000F0C2FF381C00F0D7FFFFF7C5F837E025
:10361000698B002920D0A2898A421DD3311C381C15
:1036200000F09EFD00F08EFC0290A2890392E689D4
:1036300000F082FC69460A79029905AB1A7006917E
:103640000C226946515A5870181C19815E819F706E
:10365000DF7000F0B3FB13E001F07AF9002802D02C
:10366000444800F0B7FEA1234348DF00C65900F0EC
:1036700077FF864202D0E1890131E181FFF746F808
:103680000120296800E06968FEF7FFFF02E03B487F
:1036900000F0A0FE6D7E012D23D1FEF7A7FF0028CC
:1036A0001FD12478012C07D0002C0DD0022C18D06B
:1036B000334800F08FFE14E000F09EFD002810D18A
:1036C00000F034FC00280CD1FFF74CF809E06968E1
:1036D000301CFEF7DAFF04E0647E002C01D0FFF717
:1036E000BBF800F09DFB01280CD905A8002103239D
:1036F000037041600181418141708170C17000F0AF
:103700005DFB2DE01F4800F065FE29E0FEF78EFF0F
:10371000A778002F1DD12178022912D1124B1D78D4
:10372000033D012D04D900F069FEFFF7EDFE17E01F
:103730000E4F321C786841080D48616101F00EF9A6
:103740000EE000F05BFE094A381C5168FEF79DFF51
:1037500006E000F053FE607E002801D0FFF77CF801
:1037600009B0F0BD34020020680200206C02002085
:10377000B54300000A050900001000405804090084
:10378000720409008C04090007B50190C046C046C8
:10379000C046C046C046C046C046C046C046C046F9
:1037A000C046C046C046C046019B013B0193002B6A
:1037B000ECD107BD70B58022164B910000245C50FF
:1037C0001549C2250E78AD00144A032E07D10926EB
:1037D0007442C1265C510825B4001D510AE001263F
:1037E00076425E51C0230E4D02265B00EE501461FE
:1037F00003244C7000235360536193604B600B753E
:10380000984205D0074801680A69002A00D090470D
:1038100070BDC04600100040A0020020FC10004017
:1038200000E100E018020020F8B53F4B1A69012AB8
:1038300053D19D693D4C802296000135032104201F
:103840009D611870C025A15139496A0002278F5027
:10385000384F00263E61C1227E607E61BE60364EDA
:1038600008259100655035682A7D3D1C002A17D037
:10387000A927F9006258314F9A75A023D9007A58C8
:10388000024202D12E4800F0A5FD00200123A12212
:1038900028620421A361D300F950A927F9006050E0
:1038A0006868002802D0274800F094FD2D69002D9B
:1038B00002D0254800F08EFD244A536899072DD484
:1038C0003768F968002900D088473668707D00287D
:1038D00028D035681E4AA55024E0022A1AD115497D
:1038E00000250D6111484D6180244D6001278D60D8
:1038F000C221A6007A428C0085511D70025103201E
:1039000058705D601D750C4B1E683769AF4209D059
:10391000B84707E00F4800F05DFD03E00E4800F0F7
:1039200059FDCDE7F8BDC046A002002000100040C0
:1039300000E100E0FC1000401802002000F001400F
:10394000AD020A00B6020A00B7020A00FCE100E07C
:1039500004050000E7020A00B8020A0070B51E4D17
:10396000061C6B7D6C78002B02D11C4800F032FDE8
:10397000287D002802D01A4800F02CFD01220021E9
:103980002A756975022C0CD816482301C318002E1D
:1039900001D11E683260621E012A05D8997A297009
:1039A00002E0114800F016FD104D2868037D002B41
:1039B00011D0022C0FD10E4C0E4E251C325953073C
:1039C00002D40D4800F006FD0C494859002802D1E8
:1039D0000B4800F0FFFC70BDA002002021010A008E
:1039E00022010A00604E00003A010A00180200207D
:1039F0000405000000F0014040010A0000100040F2
:103A000041010A00024B986801384342584170470F
:103A1000FC100040F8B5164B164C02200121C027BF
:103A2000C222D8674D4282407B00134E8021134F43
:103A3000A55081400025F050012265507D61104D58
:103A40002261A2612C78944201D1062003E0023C5D
:103A5000012C00D9101C0024FFF796FE7C61201C6D
:103A60002C70FFF7A7FE02206C753060F8BDC046D1
:103A700004E100E00010004000E100E0FC10004024
:103A8000A002002038B50E4B0E4C18600E490F4BAB
:103A90000F4A0225201DC56799500E48A421CA006F
:103AA0009850FFF7B7FF0C480023032103704170C3
:103AB00043600361037543758375256038BDC04657
:103AC0001802002000E100E01410004000F0014066
:103AD0002405000004110040A002002070B55C4CD9
:103AE0002369607D013365782361002802D059483D
:103AF00000F070FC2178032948D1574E3269002A22
:103B000044D0012D35D12269032A02D0534800F058
:103B100061FCA06902210130514A8025A061002387
:103B20008D400120217053514542C22088401550DC
:103B3000C02568004B4D29504B49336109687360BB
:103B40007361B3600326667063602375087D9842D5
:103B50000DD0A925E80016580125A6753E4C04266F
:103B600023629561A124414DE4002E511350CA688F
:103B700065E0022D08D12369012B02D03C4800F0FA
:103B800029FCFFF751FE61E03A485DE0032D5AD071
:103B9000012D3CD12169012918D12F480021304B3A
:103BA0000126C2224160816070429100C1265850B6
:103BB000B0001D502C4D304E2A68117D002902D0D6
:103BC0002A4D0420A851E4689C513FE002293DD1D0
:103BD000234E214A8023002598000221C22315612B
:103BE0005561556035504A429800C12132508B00D2
:103BF0000822F25003262670656025751A4C256848
:103C0000261C2869002800D08047306816E0022D65
:103C1000B7D0657819482B01C1180E7B0025AE423C
:103C200003D00D4A15696A1E95418B7A01202370D5
:103C3000FFF7C0FD002D09D00B4C20688268002AD8
:103C400004D0904702E00E4800F0C4FB70BDC046AF
:103C5000A002002090010A00FC1000409F010A0011
:103C60000010004000E100E01802002000F00140D8
:103C7000A4010A00A9010A0004050000604E00002A
:103C8000D6010A0008B5022804D8054B187843422B
:103C9000584103E0034800F09DFB002008BDC046EA
:103CA000A0020020F9020A00F8B52B4C0301061C03
:103CB0002A4F207DFF18002802D0294800F08AFBF7
:103CC000301CFFF7DFFF002802D1264800F082FBFE
:103CD0000121C222244D0023484291006375C02275
:103CE00068502249022052008850214866700268BC
:103CF000116852682361A3613B68A160E260636060
:103D0000022E18D8387A80239B00E850F87A194B95
:103D1000002805D1E950EA58002A08D1164804E0E5
:103D2000EA50E958002902D1144800F053FB7F7A89
:103D3000C1208300EF500E4D29680A7D002A07D06C
:103D4000022E05D10B480E4B00260427A6751F50E6
:103D500001256575F8BDC046A0020020604E000038
:103D6000DB000A00DD000A000010004000E100E076
:103D7000180200200405000000010A0005010A00E5
:103D800000F001407047C04610B5041E02D108483B
:103D900000F020FB074B00221C60191DDA67083376
:103DA000CA678020DA67044B44031C6010BDC0461C
:103DB00029000B00C402002000E100E070B5144CA3
:103DC000051C2368002B02D1124800F003FB201CC5
:103DD0000830C16F092902D90F4800F0FBFAE66FDD
:103DE0000C225643A319043343CD43C3251C083585
:103DF000E86F0130E867E16F0131E167E66F092E96
:103E000001D90022E2678024044B65035D6070BD28
:103E1000C402002034000B0035000B00FCE100E080
:103E2000034B0A200833D96F421AD0B27047C046FC
:103E3000C4020020F0B587B0012383F31088134C2F
:103E4000124D0834E06F00281BD02A1DD16F0C26BC
:103E5000714303AB69180431181CE0C9E0C0E76F77
:103E60000026013FE767D46F0134D467D56F092D71
:103E700000D9D66786F31088044A176807CBB8477D
:103E8000DAE780F3108807B0F0BDC046C402002016
:103E900038B50A4C051CE36F002B02D1084800F02E
:103EA00099FA291C0831E06F00F03CFC002188429F
:103EB00001D0E1670121081C38BDC0464C03002039
:103EC0006F020C0010B500F0B7FB0021124A880009
:103ED000002384188818A361A363041C80348830ED
:103EE000237003700D480C18013123700829EDD19F
:103EF000111C101C141C90319130583413705360F5
:103F00009360D360136153610B7003702370D367A8
:103F100092320123137010BD4C030020E0030020F7
:103F2000014B185C7047C046E0030020014B903302
:103F3000187870474C030020014B58687047C04602
:103F40004C030020014B98687047C0464C0300208A
:103F5000014BD8687047C0464C03002010B5104C88
:103F60002378002B02D00F4800F034FAE06F0028CD
:103F700002D100F08BFBE067E06F00280FD0012139
:103F800043784A4206210B43437002700023C21853
:103F9000FF2101339170202BF9D10323237010BD31
:103FA0004C0300203B010C0038B5124C2378002B49
:103FB0001ED1201C90300178002919D10825606994
:103FC00000F028FC002805D0231C606990330122F2
:103FD0001A70206161690131082900D10021231C78
:103FE000616190331A78002A02D1013D002DE6D19B
:103FF00038BDC0464C03002038B5094D041C2B1CAD
:1040000090331878002804D02969A14201D1FFF724
:10401000CBFF2A19034B0025803215701D5538BD82
:104020004C030020E0030020F0B5464D85B003931B
:10403000EB6F061C0C1C171C002B02D1424800F031
:10404000C9F92878032802D0404800F0C3F9E96F85
:1040500001234A781A4202D192352D786B4004250B
:10406000002E61D050070126810F1E40251C231C05
:104070000A0608330E353F023249A8003F0A029370
:104080000B5817430B980A9A0025156005609F424C
:1040900033D0201CFFF7FCFE0190AE4200D0051C7F
:1040A00001232E1C1E40002828D00299254A0631E3
:1040B00088008750039F1D1C002F20D0244F3B5D9C
:1040C000002B1CD0201C00F0A5FB002802D12148A9
:1040D00000F080F9201C00F05BFB051E02D0201CC4
:1040E000FFF78AFF0A990D60002D02D11A4800F0EF
:1040F00071F900203855022501E001950325002EB5
:104100000DD0201C00F06CFB0B9E3060002802D10B
:10411000124B336005E00E4F01223A5501E00B9C33
:1041200026600199002905D1064CE06F00F0CCFA19
:104130000020E067034A00261670FFF735FF281CB1
:1041400005B0F0BD4C0300205B010C005C010C00CD
:10415000E003002091010C0096010C00A403002054
:10416000F8B51F4C071C23780E1C013B012B02D90C
:104170001C4800F02FF90425002F19D020780128C1
:1041800002D0194800F026F9E268002A02D1174847
:1041900000F020F9E16800250F78AF4208D0606890
:1041A000FFF776FE0225002802D1114800F012F92F
:1041B000002E0ED06768381C00F0EAFA061E02D006
:1041C000381CFFF719FFA3689E4202D0094800F08F
:1041D00001F900202070FFF7E7FE281CF8BDC0465B
:1041E0004C030020FC000C0002010C0003010C0039
:1041F0000E010C001E010C00014B18787047C046E0
:104200004C03002038B5041C0D1C00F013FB0028E3
:1042100001D1002008E0281C211C00F083FA0028AE
:10422000F7D0FFF7C1FE012038BD08B500F0D8FA7D
:1042300008BD10B5041CFFF7DFFE201C00F000FBDA
:1042400010BD08B500F0E6FA08BD08B5083000F06A
:10425000C7FA08BD08B5083000F09AFA08BD08B5DD
:10426000083000F0EDFA08BD08B5083000F0D2FAC9
:1042700008BD10B52A4C2378002B02D0294800F045
:10428000A9F8201C90300178002927D020696060AF
:1042900000F0A6FAA060002802D1234800F09AF8A6
:1042A000A26801235078034004D1211C92310A787E
:1042B000002A10D16068FFF7D7FF02280ED8E36FFD
:1042C000002B02D100F0E2F9E067E16FE160002924
:1042D00004D0012001E0E360022020702278002059
:1042E00082421BD0A368834202D1104800F072F8CA
:1042F00020696060063081006318DA78032101329A
:10430000D0B2D870A36808405A7841000620824392
:104310000A435A70903400232370012010BDC04618
:104320004C030020C3000C00C9000C00E7000C0087
:1043300008B500F0ABF908BD08B500F0C5F908BD37
:1043400008B500F077FA08BD014B9233187070473A
:104350004C030020014B9233187870474C03002027
:104360007047C046024B9870587018707047C0462E
:10437000E803002010B5041E012C02D9024800F009
:1043800029F8024B5C7010BD2A000D00E8030020E4
:10439000014B18787047C046E8030020014B98781D
:1043A0007047C046E8030020014B58787047C0466C
:1043B000E803002008B5054B1A7858789A701870F1
:1043C000034B8100CA58904708BDC046E80300204F
:1043D0007C00002008B5FEF7FFF808BD10B5041EEC
:1043E00002D10448FFF7F6FF034B00221C605A601D
:1043F0009A6010BD2A0001001C020020094B00B584
:1044000018689A68016801329A608A4208D359682C
:104410004068002201319A605960814200D35A609D
:1044200000BDC0461C020020F8B500282AD0164C5A
:10443000A36801280ED1276801333A68A36093422C
:1044400020D36068796800250130A56060608842EB
:1044500018D316E02668C7183568A760381C291CD1
:1044600000F042FB62683B1C80186060AB4201D3E5
:104470005B1BFBE771686568A3608D4201D36D1A11
:10448000FBE76560F8BDC0461C020020024B1A68BD
:1044900099681068401A70471C02002070B50D4DD5
:1044A000041C2B685868844202D30B48FFF792FF24
:1044B0006E68B4420CD002D829684A68A418FFF785
:1044C000E5FF2D68F3432E6819197143081800E0C1
:1044D000002070BD1C0200206800010070B5041CA3
:1044E0000D1C884202D30B48FFF774FF0A4E336855
:1044F0001868854202D90948FFF76CFFB168601A55
:10450000A14206D30020A94203D3326815686E1A6F
:10451000301970BD7D0001001C0200207E000100EA
:1045200038B5041C101C0D1CFFF7B8FF002801D083
:10453000001911E0201C291CFFF7D0FF041CFFF715
:10454000A5FF031C201E984206D304490D686A6823
:104550002C68013A5443001938BDC0461C020020A3
:10456000074B10B51A68596850681C1C814202D369
:104570000448FFF72FFF236861689A68505C10BDFC
:104580001C020020B200010038B5064B041C1A685A
:104590001D1C5068844202D30348FFF71BFF6C6068
:1045A00038BDC0461C020020B9000100014B58680C
:1045B0007047C0461C02002038B5064B041C1A6820
:1045C0001D1C1068844202D30348FFF703FFAC6050
:1045D00038BDC0461C020020C5000100014B986890
:1045E0007047C0461C02002010B50F4B1A6800230C
:1045F00093420BD20D499C006458A04203D10C4851
:10460000FFF7E8FE0CE00133DBB2F1E700242222E1
:10461000624308495318984204D00134062CF6D15D
:10462000002000E0012010BDEC030020F00300207A
:10463000F6000300F804002010B500220F495000D6
:10464000801800230C1801326370A3704354102AA1
:10465000F4D122225A430A490A485418211C9A00CC
:1046600084502231DE22227001348C42FAD101338F
:10467000062BEED1044C236010BDC0460804002078
:10468000F8040020F0030020EC03002038B50A4BAA
:104690001C68002C0ED0621E084990004458084D3A
:1046A0001A604550201CFFF79FFF002802D10548E3
:1046B000FFF790FE201C38BDEC030020F003002023
:1046C000ADDEADDE7D00030070B5104C051C236827
:1046D000052B02D90E48FFF77DFE281CFFF784FF4B
:1046E000002802D10B48FFF775FE21680A488A00AE
:1046F00011580A4B061C994202D00948FFF76AFE7E
:10470000206882000130B550206070BDEC030020AD
:104710008500030086000300F0030020ADDEADDE5F
:1047200088000300F8B5051C0C1E0F2C02D9144894
:10473000FFF750FE281CFFF757FF002802D1114851
:10474000FFF748FE104966003019435C0022022B37
:1047500013D80B185F78C0190C4F8000C5515D78D5
:104760000135E8B258705F78022F00D95A703219BB
:104770008C5C0134E6B28E540122101CF8BDC04698
:104780008F0003009000030008040020380400207C
:1047900038B5041E0F2C02D90E48FFF71BFE0E4A37
:1047A00065002919885C002813D0531898780918D7
:1047B0000A488900085899780131C9B299709978E6
:1047C000022901D9002199702C19155D013DEBB228
:1047D000135538BDA600030008040020380400204B
:1047E00010B5041E0F2C02D90748FFF7F3FD074B45
:1047F00062001119C85C002805D0581884780B197C
:1048000003499A00505810BDB70003000804002067
:104810003804002010B5041E0F2C02D90348FFF7FE
:10482000D9FD630002491819405C10BDC80003009F
:1048300008040020014B18687047C046EC030020B4
:1048400038B5051E0F2D0CD90948FFF7C3FD08E048
:10485000084B9C4202D10848FFF7BCFD201CFFF723
:1048600033FF281CFFF794FF041EF1D138BDC0466A
:10487000D7000300ADDEADDEDB000300164BA12147
:1048800010B50122CC0000205A60DA6018515A6439
:10489000124A1C1C9958814202D01148FFF79AFD18
:1048A0000123C222584291000E4B60500022A221E7
:1048B0005A640420CB00E0500B490C4C01202260CC
:1048C0002271627108700A4B8022C021D40081409D
:1048D0005C501C6010BDC04600A0004044050000B4
:1048E00035000400FCA00040C40500202802002080
:1048F00000E100E0034B0449012200201A60087027
:104900007047C04600A00040C4050020094A30B5E9
:1049100001235360084CD3608025084AC020002141
:10492000ED0098401160117125505171044A1370C7
:1049300030BDC04600A0004000E100E02802002099
:10494000C4050020014B18787047C046C4050020FC
:10495000014B18797047C04628020020F7B5334F45
:104960000092334C8022C2237E790191051C99006C
:1049700050026050002E02D02E48FFF72BFD002D74
:1049800002D12D48FFF726FD3A68002A02D02B48B5
:10499000FFF720FD3D60009D294E012D0DD0002D1B
:1049A00003D0022D0DD1A92208E00120254B00994A
:1049B0006064E5582064716407E0A822D500655959
:1049C00003E02148FFF706FD002501227A71019FCF
:1049D000A821E81987B20023C8007364275027581C
:1049E00000976264174AA758716C1E1C994202D046
:1049F0001648FFF7EFFC009BAB4205D3AF4201D353
:104A00009F420CD3124808E0301CAF427041009D19
:104A1000AF427641B04202D00E48FFF7DBFC802265
:104A2000C12157028E00A751F7BDC04628020020C1
:104A300000A000407300040075000400760004002C
:104A4000FCA0004044050000890004009B00040015
:104A5000B0000400C90004000048704748A00040AE
:104A60000048704740A1004070B58022134C144D9F
:104A7000C22350029900002668506664114C2268D7
:104A8000B24202D11048FFF7A5FC104B012166711C
:104A90002068A82226606964EE58D300EA580C4DBD
:104AA0001432AE4203D8C0231D02AA4202D800210C
:104AB000964249412171804770BDC046FCA000402C
:104AC00000A0004028020020EC0004004405000083
:104AD000FF3F000002B4714649084900095C4900E3
:104AE0008E4402BC7047C046002243088B4274D3F8
:104AF00003098B425FD3030A8B4244D3030B8B42DF
:104B000028D3030C8B420DD3FF22090212BA030CE7
:104B10008B4202D31212090265D0030B8B4219D3C8
:104B200000E0090AC30B8B4201D3CB03C01A5241E8
:104B3000830B8B4201D38B03C01A5241430B8B4230
:104B400001D34B03C01A5241030B8B4201D30B0319
:104B5000C01A5241C30A8B4201D3CB02C01A524140
:104B6000830A8B4201D38B02C01A5241430A8B4203
:104B700001D34B02C01A5241030A8B4201D30B02EC
:104B8000C01A5241CDD2C3098B4201D3CB01C01A06
:104B9000524183098B4201D38B01C01A5241430910
:104BA0008B4201D34B01C01A524103098B4201D3FE
:104BB0000B01C01A5241C3088B4201D3CB00C01A6B
:104BC000524183088B4201D38B00C01A52414308E3
:104BD0008B4201D34B00C01A5241411A00D2014608
:104BE000524110467047FFE701B5002000F0FCF885
:104BF00002BDC0460029F7D003B5FFF775FF0EBC14
:104C00004243891A1847C04603460B437FD400220B
:104C100043088B4274D303098B425FD3030A8B4250
:104C200044D3030B8B4228D3030C8B420DD3FF22BA
:104C3000090212BA030C8B4202D31212090265D088
:104C4000030B8B4219D300E0090AC30B8B4201D33B
:104C5000CB03C01A5241830B8B4201D38B03C01A82
:104C60005241430B8B4201D34B03C01A5241030BF9
:104C70008B4201D30B03C01A5241C30A8B4201D3AA
:104C8000CB02C01A5241830A8B4201D38B02C01A55
:104C90005241430A8B4201D34B02C01A5241030ACC
:104CA0008B4201D30B02C01A5241CDD2C3098B42B1
:104CB00001D3CB01C01A524183098B4201D38B012E
:104CC000C01A524143098B4201D34B01C01A5241D1
:104CD00003098B4201D30B01C01A5241C3088B4216
:104CE00001D3CB00C01A524183088B4201D38B0001
:104CF000C01A524143088B4201D34B00C01A5241A3
:104D0000411A00D201465241104670475DE0CA0F79
:104D100000D04942031000D34042534000229C4639
:104D200003098B422DD3030A8B4212D3FC22890143
:104D300012BA030A8B420CD3890192118B4208D319
:104D4000890192118B4204D389013AD0921100E07B
:104D50008909C3098B4201D3CB01C01A524183098F
:104D60008B4201D38B01C01A524143098B4201D3BC
:104D70004B01C01A524103098B4201D30B01C01AE7
:104D80005241C3088B4201D3CB00C01A5241830861
:104D90008B4201D38B00C01A5241D9D243088B42B7
:104DA00001D34B00C01A5241411A00D2014663465A
:104DB00052415B10104601D34042002B00D54942BE
:104DC000704763465B1000D3404201B5002000F0FD
:104DD0000BF802BD0029F8D003B5FFF715FF0EBC94
:104DE0004243891A1847C0467047C046002310B591
:104DF000934203D0CC5CC4540133F9E710BD0000EA
:104E0000F8B5C046F8BC08BC9E467047F8B5C04629
:104E1000F8BC08BC9E46704743000000000000201C
:104E200081FF0000001001401101040000B00040AB
:104E30000B0004000304090A11120205080B1013E9
:104E40000106070C0F141D1E001C19181600000087
:104E50000501030000001F00030200000102000022
:104E6000001000401011004003100000010000007D
:104E700000100040000000000B02040000000000D1
:104E800004100040000000000708030100000000BB
:044E9000000000001E
:084E9400E0B2FF7F0100000005
:104E9C000000000000000000000000000000000006
:104EAC0000000000000000000000000000000000F6
:104EBC00184E000000000000000000000000000080
:104ECC0000000000000000000000000000000000D6
:104EDC0000000000000000000000000000000000C6
:104EEC0000000000000000000000000000000000B6
:104EFC000101FF00012953770500000004192A3F26
:104F0C004D000000000000000000000049350000CA
:104F1C0095320000390100000D0100000000000076
:0400000300001D3D9F
:00000001FF
